:020000020000FC
:0200000033C00B
:02003800C3C043
:10006800F89408E00EBF0FEF0DBF0E945B000E94DE
:1000780069000E9436010E9499010E9400020E94B4
:100088002E0144273327662776E9FF2488279927F6
:100098000E94C4000E94790078940E948A00FF2080
:1000A800E1F3FF243323C9F70E941902F6CF00EFCA
:1000B8000AB9519A0FE304B90FE307B900EF0BB976
:1000C8000FE005B9002708B9089500E00093C500BE
:1000D80007E60093C40000270093C00008E10093DE
:1000E800C10006E00093C200089502E004BD09EFD4
:1000F80007BD03E005BD02E000936E00089500917E
:10010800C00005FFFCCF2093C60008950091C000F1
:1001180007FF08952091C600213389F02233B9F0F2
:100128002333B9F02433B9F02533B9F02633B9F0C5
:100138002733B9F02B32B9F02D32D9F0089533278F
:100148006627FF24882799270E942E01089531E009
:10015800089532E0089533E0089534E0089535E0D5
:10016800089536E00895743651F079516627FF24D2
:1001780008957A3F21F009E1700F6627FF2408955A
:10018800E2EBF4E02591222319F00E948300FACFD4
:100198000895332359F0C0E0D1E0032F0A95000FEA
:1001A800000F000F040FC00F58810895C0E7D1E079
:1001B800042FC00F588108950F930FB70F935C9ABF
:1001C8005D9A5E9A5F9A289A299A2A9A2B9A2C986D
:1001D8002D98002708B90E94CD0057FD2C9A56FD8E
:1001E8002D9A55FD409A54FD419A53FD429A52FD6D
:1001F800439A51FD449A50FD459A403071F0413080
:1002080071F0423071F0433071F0443071F0453094
:1002180071F0463071F02B980DC05C980BC05D985A
:1002280009C05E9807C05F9805C0289803C0299840
:1002380001C02A984395483009F44427332331F400
:100248006395671718F06627FF24F3940F910FBF83
:100258000F911895A0E7B1E0112708E01D930A95C2
:10026800E9F70895C0E0D1E000E0099304E20993BA
:1002780004E2099300E0099302E4099302E4099374
:100288000CE3099300E0099300E0099300E2099365
:100298000EE2099300E0099302E4099302E409934A
:1002A8000CE3099300E0099300E0099306E609933B
:1002B80009E9099301E8099301E8099302E409931C
:1002C80004E2099308E1099300E0099304E2099321
:1002D80004E2099300E0099302E409930AE509930B
:1002E80004E2099300E0099309E909930AE50993EF
:1002F8000CE309930FEF09930FEF09930CE30993AC
:100308000AE5099309E9099304E2099308E10993C5
:1003180004E2099300E009930EE7099302E40993C4
:100328000CE3099300E009930895C0E3D1E00EEFD0
:10033800099300E9099300E9099300E9099300E8A2
:1003480009930EEF099300E9099308E9099304E971
:10035800099302E609930EE7099300E9099300E976
:10036800099300E909930EE7099300EC099300E269
:1003780009930EE1099300E2099300EC09930EEF4B
:10038800099302E9099302E9099302E909930CE642
:1003980009930EEF099302E9099302E9099302E927
:1003A800099302E809930EEF099300E2099300E12B
:1003B800099308E009930EEF099300E8099300E810
:1003C80009930EEF099300E8099300E809930CE7F5
:1003D800099302E8099302E8099302E809930CE7F4
:1003E800099302E6099302E9099302E9099302E9EC
:1003F80009930CE809930895C2E6D1E000E0099357
:1004080001E0099302E0099303E009930FEF0993D0
:1004180004E0099305E0099306E0099307E00993CE
:1004280008E0099309E0099308958B3049F1A2E6A1
:10043800B1E0082FA00F1C911F3FB9F0953040F094
:100448008A30E1F011270E944D029927839508957B
:10045800A0E3B1E0012F000F000F010F090FA00F5B
:100468001C910E944D029395089511270E944D02F8
:100478009395923068F09927839508958BE0992792
:1004880011270E944D029395983010F088279927DC
:100498000895A0E7B1E028E00C91000F17FD016076
:1004A8000D93110F2A95C1F708950D0A50524F4226
:1004B8004C454D412041202D204D415452495A2050
:1004C8004445204C454453200D0A4269656E7665C3
:1004D8006E69646F0D0A0D0A31202D204D656E730B
:1004E800616A6520467261792042656E746F732077
:1004F8000D0A32202D2043617269746120736F6E7A
:100508007269656E646F0D0A33202D20436172692C
:100518007461206775696E616E646F200D0A3420FE
:100528002D20436F72617A6F6E200D0A35202D20C1
:100538003A330D0A36202D2041737465726973634E
:100548006F200D0A37202D2058440D0A2B202D200E
:1005580041756D656E7461722076656C6F63696450
:1005680061640D0A2D202D204469736D696E7569CB
:10057800722076656C6F6369646164200D0A536547
:0C0588006C656363696F6E653A200000CB
:00000001FF
