:020000020000FC
:0200000033C00B
:02000C004BC1E6
:10006800F89408E00EBF0FEF0DBF0CE104B92A9811
:100078002B982C982098289A389839983A983B9831
:10008800409A419A429A439A01E00093680001E03D
:1000980000936B0001E00BBB00270093C00000E059
:1000A8000093C50007E60093C40008E00093C10070
:1000B80006E00093C200519A33274427339902C0BF
:1000C80010E005C0329902C012E001C015E0789432
:1000D800103021F4E0E0F3E0DBD009C0123021F465
:1000E800ECEDF2E0D5D003C0ECE4F3E0D1D033235B
:1000F80039F03327E2E1F3E0CBD0E8E2F3E0C8D00F
:10010800103009F416C0113009F41AC0123009F47D
:1001180033C0133009F437C0143009F45BC015300C
:1001280009F44DC0F8942A982B982C9815E07894E7
:10013800DECF2A982B982C983099D9CF64D0D7CF76
:10014800F894113011F07894D2CF189B0DC03299E1
:1001580009C02A982B982C9812E07894ECEDF2E0DC
:1001680097D0C5CF7894C3CF2A982B982C9814E0B1
:1001780031E044277894BBCF2A982B982C98319952
:10018800B6CF60D0B4CFF894133011F07894AFCFD5
:10019800189B0DC0339909C02A982B982C9810E009
:1001A8007894E0E0F3E074D0A2CF7894A0CF2A98B6
:1001B8002B982C9814E031E04427789498CF2A980B
:1001C8002B982C98309902C01ED091CF31998FCF9F
:1001D80039D08DCF2A982B982C98189B08C0442387
:1001E80041F4309B84CF319B82CF41E080CF4427BC
:1001F8007ECF309903C0442706D079CF319977CF85
:10020800442720D074CFF894329909C02A982B98A3
:100218002C9812E07894ECEDF2E03AD00895189B0F
:1002280009C02B982A9A2C9A11E07894EAECF2E00B
:100238002FD008952A982B982C9814E031E0442761
:1002480078940895F894339909C02A982B982C9893
:1002580010E07894E0E0F3E01BD00895189B09C003
:100268002A982B9A2C9A13E07894EEEEF2E010D0AC
:1002780008952A982B982C9814E031E04427789414
:1002880008950091C00005FFFCCF2093C600089593
:100298002591222311F0F5DFFBCF08950F930FB7B7
:1002A8000F9318990AC0113011F0133031F42A98BD
:1002B8002B982C9814E031E044270F910FBF0F9131
:1002C80018955075657274612061627269656E6413
:1002D8006F0D0A00507565727461206162696572FC
:1002E8007461200D0A00507565727461206365722F
:1002F80072616E646F0D0A005075657274612063D7
:10030800657272616461200D0A004F6273746163E3
:10031800756C6F2064657465637461646F0D0A00A1
:100328004D6F76696D69656E746F20646574656E6E
:1003380069646F20706F7220736567757269646194
:10034800640D0A0050756572746120646574656E89
:10035800696461202D20706F736963696F6E20690D
:0C0368006E7465726D656469610D0A00B9
:00000001FF
