:020000020000FC
:0200000033C00B
:020004004DC1EC
:020008005BC1DA
:0200380054C1B1
:10006800F89408E00EBF0FEF0DBF00EC0AB90CE3DF
:100078000BB907E004B9002705B90FE107B9002754
:1000880008B910E040E0222733275527662777274D
:1000980088270AE00093690003E00DBB02E004BD75
:1000A80009EF07BD03E005BD02E000936E007894F8
:1000B80003D00FD0C3D0FCCF133048F0193038F438
:1000C8004C9902C05D7F08955260AFD008955D7F5E
:1000D8000895103009F41CC0113009F421C0123001
:1000E80009F423C0133009F42BC0143009F431C0CB
:1000F800153009F43CC0163009F442C0173009F431
:1001080048C0183009F44DC0193009F452C0089598
:100118008CD050FF08955E7F7727662711E00895F9
:1001280084D04C99089512E008957FD04C9906C068
:100138004D990895772713E044D0089511E0089564
:1001480051FD089575D0662319F46FD014E043D09B
:10015800089551FD089569D0662341F4739575306B
:1001680019F013E02ED0089515E03FD0089551FD01
:1001780008955ED0662319F458D016E040D008954B
:1001880051FD089555D0662319F44FD017E041D09A
:10019800089551FD089549D0662311F418E02FD031
:1001A800089551FD089547D0662311F43ED019E013
:1001B80008953BD050FF08955E7F6627772710E0AB
:1001C8000895403021F0413021F008E22BC004E1CD
:1001D80029C00EE127C0403021F0413021F00EE166
:1001E80021C00AE01FC004E11DC0403021F04130A9
:1001F80021F002ED17C006E915C004EB13C040302A
:1002080021F0413021F00AE50DC002E30BC006E4FD
:1002180009C0403021F0413021F006E403C00EE16E
:1002280001C002E38827602F08955E985F980895BB
:100238005F985E9A08955E985F9A0895403029F015
:10024800413031F004E005B905C001E005B902C04C
:1002580002E005B90027103081F0133089F014301E
:1002680079F0153081F0163089F0173079F01830B0
:1002780069F0193071F008B9089501E008B90895D6
:1002880002E008B9089504E008B9089508E008B93B
:10029800089500E108B908950F930FB70F9333231A
:1002A80039F431E024E1103011F0193009F45160CB
:1002B8000F910FBF0F9118950F930FB70F9333231B
:1002C80041F432E024E1103021F44395433009F43D
:1002D80044270F910FBF0F9118950F930FB70F93E6
:1002E800332369F0313019F04B9906C003C04A999D
:1002F80003C000C024E103C02A9509F4332783957D
:10030800843630F08827662319F051FD01C06A95BC
:080318000F910FBF0F91189522
:00000001FF
