:020000020000FC
:0200000033C00B
:0200040059C0E1
:0200080065C0D1
:020014006DC0BD
:0200380069C09D
:10006800F89408E00EBF0FEF0DBF0FE304B900E8E6
:100078000AB90CE10BB9002705B944272227332711
:1000880069D00AE00093690003E00DBB04E0009327
:10009800680000E100936D0002E004BD09EF07BDB0
:1000A80003E005BD02E000936E0078944BD0FECFCC
:1000B8000F930FB70F93332329F431E024E149302C
:1000C80009F043950F910FBF0F9118950F930FB734
:1000D8000F93332329F432E024E1442309F04A95AD
:1000E8000F910FBF0F9118950F930FB70F934C995E
:1000F80005C0332319F433E024E144270F910FBFDF
:100108000F9118950F930FB70F93332391F0313058
:1001180029F0323031F04C9909C006C04A9906C01E
:1001280003C04B9903C000C024E103C02A9509F419
:1001380033270F910FBF0F911895C0E0D1E0C40F7E
:1001480058810895FADF052F0F7305B95F9856FD9A
:100158005F9A0895C0E0D1E00FE3099306E00993A0
:100168000BE509930FE4099306E609930DE6099355
:100178000DE7099307E009930FE709930FE6099341
:020188000895D8
:00000001FF
