:020000020000FC
:0200000033C00B
:0200040063C0D7
:0200080072C0C4
:020014007DC0AD
:020038007AC08C
:10006800F89408E00EBF0FEF0DBF00EE0AB90FE1DC
:1000780004B90CE10BB9002705B9222733276627F5
:100088008827992741E00AE00093690003E00DBB47
:1000980004E00093680000E100936D0002E004BDF5
:1000A80009EF07BD03E005BD02E000936E005AD0DA
:1000B8007894992309F056D08823D9F3882777D0E4
:1000C800E7D0F7CF0F930FB70F93332341F431E005
:1000D80024E1483011F0439501C041E091E00F91CF
:1000E8000FBF0F9118950F930FB70F93332341F458
:1000F80032E024E1413011F04A9501C048E091E036
:100108000F910FBF0F9118950F930FB70F934C993D
:1001180006C0332321F433E024E141E091E00F915C
:100128000FBF0F9118950F930FB70F937A9511F48E
:1001380078EC81E0332391F0313029F0323031F01E
:100148004C9909C006C04A9906C003C04B9903C020
:1001580000C024E103C02A9509F433270F910FBF8B
:100168000F91189566278827992778EC413069F010
:10017800423069F0433069F0443069F0453069F045
:10018800463069F0473069F00EC051E00EC050E8C3
:100198000CC051E00AC051E008C055E506C051E85E
:1001A80004C05FE002C05527662772D00895413029
:1001B80079F0423079F0433079F0443079F04530C5
:1001C80079F0463079F0473079F0483079F0089581
:1001D8000FD0089511D0089513D0089521D008950F
:1001E80033D0089534D008954AD008954AD0089558
:1001F800550F09F451E00895569509F450E808950B
:10020800662339F4503819F461E056950895550F6E
:100218000895513019F46627550F08955695089595
:10022800662349F45F3F21F461E088945795089567
:100238000894551F0895513021F466270894551FD6
:1002480008958894579508950FEF502708956623C9
:1002580059F4583111F461E00BC0052F007F069561
:100268005F70550F502B0895513811F46627F5CF5C
:10027800052F007F000F5F705695502B08955295FB
:10028800089563956F70562F052F0295502B08958A
:10029800052F0770000F000F000F000F000F0C61F3
:1002A8000BB9052F0695069506950F7105B90895A2
:00000001FF
