:020000020000FC
:0200000016C028
:10002C00A6C008E00EBF0FEF0DBF0E9431000E946A
:10003C0039000E9449000E946C0078940E9465006F
:10004C00213319F0223321F0F9CF0E947500F6CF3D
:10005C000E948D00F3CF0CEF0AB903E004B900271E
:10006C000BB905B9089500E00093C50007E60093AD
:10007C00C40000270093C00008E10093C10006E013
:10008C000093C200089500270093800008E00093BD
:10009C0081000027009385000093840008E1009301
:1000AC00890009E60093880002E000936F00089530
:1000BC000091C00005FFFCCF2093C600089500916D
:1000CC00C00007FFFCCF2091C6000895E4E9F1E0E1
:1000DC002591222319F00E945E00FACF0895F8941E
:1000EC0008E000938100A8E1B2E0EA2FFB2F44273F
:1000FC0055270E94A50000270093850000938400DB
:10010C0002E006BB09E00093810078940895F8940E
:10011C0008E000938100A8EDB1E0EA2FFB2F442703
:10012C0050E40E94A50000270093850000938400F2
:10013C0002E006BB09E000938100789408953591A4
:10014C000E94AF004395451719F4EA2FFB2F442763
:10015C000895032F0F73000F000F132F169516958C
:10016C0016951695169516950BB915B908950F9306
:10017C000FB70F931F933F930E94A5003F911F91C0
:10018C000F910FBF0F9118950D0A50524F424C45CD
:10019C004D412042202D2044414320522D325220EB
:1001AC000D0A31202D2053656E616C2031340D0AFF
:1001BC0032202D2053656E616C2037200D0A53655B
:1001CC006C656363696F6E653A2000000008101857
:1001DC002028303840485058606870788088909853
:1001EC00A0A8B0B8C0C8D0D8E0E8F0F8FFF7EFE7A7
:1001FC00DFD7CFC7BFB7AFA79F978F877F776F67C3
:10020C005F574F473F372F271F170F0700060C125A
:10021C00181F252B31373D444A4F555B61676D7272
:10022C00787D83888D92979CA1A6ABAFB4B8BCC1E6
:10023C00C5C9CCD0D4D7DADDE0E3E6E9EBEDF0F2DA
:10024C00F4F5F7F8FAFBFCFDFDFEFEFEFFFEFEFEEC
:10025C00FDFDFCFBFAF8F7F5F4F2F0EDEBE9E6E363
:10026C00E0DDDAD7D4D0CCC9C5C1BCB8B4AFABA62D
:10027C00A19C97928D88837D78726D67615B554FD9
:10028C004A443D37312B251F18120C060000000084
:10029C000000000000000000000000000000000052
:1002AC000000000000000000000000000000000042
:1002BC000000000000000000000000000000000032
:1002CC000000000000000000000000000000000022
:1002DC000000000000000000000000000000000012
:1002EC000000000000000000000000000000000002
:1002FC0000000000000000000000000000000000F2
:0C030C00000000000000000000000000E5
:00000001FF
