:020000020000FC
:1000000000C008E00EBF0FEF0DBF0E9412000E945B
:100010001A000E942A002830E0F70E9431000E9456
:100020003900F7CF00EF0AB90FE004B900270BB988
:1000300005B9089500E00093C50007E60093C400E9
:1000400000270093C00000E10093C10006E0009388
:10005000C20008950091C00007FFFCCF2091C600A8
:10006000089531E0022F002319F0330F0A95FBCFDA
:100070000895032F0F7002950BB9032F02950F708F
:0400800005B9089521
:00000001FF
